:020000040800F2
:10000000980E0020790200086D1D0008191D0008D7
:10001000691D0008511A0008A7260008000000000A
:10002000000000000000000000000000711F000838
:10003000011C000800000000E11D000885200008E8
:10004000930200089302000893020008930200083C
:10005000930200089302000893020008930200082C
:10006000930200089302000893020008930200081C
:10007000930200089302000893020008930200080C
:1000800093020008930200089302000893020008FC
:1000900093020008930200089302000893020008EC
:1000A00093020008930200089302000893020008DC
:1000B0009302000893020008E92000089302000858
:1000C00093020008930200089302000893020008BC
:1000D00093020008FD220008930200081123000883
:1000E000930200089302000893020008930200089C
:1000F000930200089302000893020008930200088C
:10010000930200089302000893020008930200087B
:10011000930200089302000893020008930200086B
:10012000930200089302000893020008930200085B
:1001300000F002F800F090F80AA090E8000C824469
:100140008344AAF10107DA4501D100F085F8AFF246
:10015000090EBAE80F0013F0010F18BFFB1A43F0A5
:1001600001031847982A0000B82A0000103A24BF5B
:1001700078C878C1FAD8520724BF30C830C144BF0C
:1001800004680C607047000000230024002500264E
:10019000103A28BF78C1FBD8520728BF30C148BFEA
:1001A0000B6070476E2900F09882702900F00F866E
:1001B000662902F0B584652902F0B284672902F04D
:1001C000AF846129AFF3008003681B0A28BF41F0A8
:1001D0008001692900F0BA80642900F0B780752990
:1001E00000F0B4806F2900F09D85782900F0DB8550
:1001F000E92900F03785E42900F03485F52900F07D
:100200003185EF2900F09A85F82900F0DA85036836
:10021000DB0928BF41F08001632900F0A68473291F
:1002200000F0AB84E32900F07186F32900F07686B4
:10023000002070471FB500F0D5FD0400002000210C
:1002400002F058FC401C60600020002102F03CFCE1
:10025000E0601FBD10B510BD00F0FAFE1146FFF7BB
:10026000E9FF02F053FB00F021FF03B4FFF7F2FFB8
:1002700003BC02F035FA00000948804709480047EE
:10028000FEE7FEE7FEE7FEE7FEE7FEE7FEE7FEE746
:10029000FEE7FEE704480549054A064B70470000A3
:1002A000892000083101000898080020980E0020DD
:1002B000980A0020980A0020704700001CB50C46E0
:1002C000064B7B4469460090204600F02CFC044617
:1002D0000020694600F03AFC20461CBD870800005B
:1002E0000FB4044910B503AA029800F04BFC10BCEF
:1002F0005DF814FB1800002070B50C460546012A75
:1003000005D02878800600D5EA69002302E00123A1
:1003100005E05B1C934202D2E05C0028F9D1A86999
:10032000E618C01AA861286A18442862284600F016
:1003300042F904E0D5E9012114F8010B9047B442D9
:10034000F8D3284600F04DF970BD00002DE9F041CA
:100350000646002410687529314616A510D000F015
:1003600051F9002802DA404213A507E031688A07F4
:1003700001D512A502E0490704D511A5012401E029
:1003800000F049F900210A2206F1240709E0B0FB38
:10039000F2FCB0FBF2F302FB1C003030785418463C
:1003A000491C0028F3D123462A463046BDE8F041D7
:1003B00000F03AB9000000002D0000002B00000002
:1003C000200000002DE9F05F894604464FF0000A46
:1003D000DFF874B1FB44C0F820A02046E1688847EC
:1003E000002874D0252806D0D4E901219047206A3E
:1003F000401C2062F1E700265F462046E1688847FE
:100400002028054607DB312D05D2781910F8200C7D
:1004100008B10643F1E7B00701D526F00406C4F899
:100420001CA00027C4F818A02A2D09D0284602F0E5
:1004300050F938B304EB8708303DC8F8185019E07C
:1004400059F8041B204604EB87029161E168884754
:10045000012F054618D1E069002820DA26F0200691
:100460001DE0D8F8180000EB800005EB40003038A4
:10047000C8F818002046E1688847054602F029F9C7
:100480000028EED1012F0AD02E2D08D12046E16898
:1004900088477F1C0546022F46F02006C4DBA06972
:1004A000002803DA404246F00106A061F00701D0BF
:1004B00026F010066C2D0BD0682D09D04C2D39D0AC
:1004C0006A2D35D0742D35D07A2D33D016E038E032
:1004D000E1682F4620468847B842054609D16C2F6F
:1004E00026D04FF48060E1680643204688470546E1
:1004F00004E06C2F1AD04FF4807006430DB3A5F1C1
:100500004100192802D8203546F400664A4629469B
:10051000204626604E46FFF745FE80B101280BD0ED
:10052000F61D26F0070000F1080956E74020E4E731
:100530008020D8E70020D6E706F104094DE72846D9
:1005400052E7206ABDE8F09F4C27000030B5054611
:100550000B462A4613F8014B12F8010B08B1A042D2
:10056000F8D01CB1002802D06D1CF1E7284630BD40
:1005700010B5431C02E010F8011B71B18107FAD1DC
:100580004FF0013202C88C1A8C4314EAC211F9D020
:10059000C01A0A0603D0C01E10BDC01A10BD0A043E
:1005A00001D0801E10BD0902FCD0401E10BD704756
:1005B00070477047704770B5044685690068C1068A
:1005C00001D5302600E02026C00707D070BDD4E951
:1005D000012130469047206A401C20626D1EF6D5EE
:1005E00070BD70B5044685690078C00707D170BD3D
:1005F000D4E9012120209047206A401C20626D1E12
:10060000F6D570BD09684A0501D540B27047C905E5
:10061000FCD500B2704709684A0501D5C0B27047E1
:10062000C905FCD580B270472DE9F0470D469946C3
:100630009246044600F124080168880604D5E06962
:1006400021F01001216000E00120A84201DD471BDC
:1006500000E00027A1697A1902EB0900081AA061DD
:100660002078C00602D42046FFF7A5FF002608E048
:10067000D4E901211AF806009047206A401C761C34
:1006800020624E45F4DB2078C0060AD52046FFF7ED
:1006900092FF06E0D4E9012130209047206A401CF7
:1006A0002062381EA7F10107F4DC07E0D4E901213C
:1006B00018F805009047206A401C2062281EA5F10A
:1006C0000105F3DC2046FFF78CFF2078000602D5F9
:1006D0000220BDE8F0870120FBE711680268006A8C
:1006E000530501D508700AE0D30501D5088006E05E
:1006F000130603D5C217C1E9000200E0086001201B
:10070000704770472DE9FF4F0C461E464FF0FF37EC
:100710008BB0D2E90001DDF860800A908A46C1F30F
:100720000A5505B93D46002108464FF00000BAF1D0
:10073000000F00F4400005DA00EB80004FF44001A8
:1007400001EA50004FEA9059B9F1010F00DDB946B6
:100750000A9850EA4A000ED044F61050A5F2FF3530
:1007600045432F14B8F1000F1ED07542291E1EDD1F
:10077000C9F100021CE0B8F1010F4FF0000001D0F8
:10078000302103E0F24305E02154401CB042FBDB82
:1007900030460022002121540B99C1F80880C1E99C
:1007A00000200FB0BDE8F08FBD1B6D1CDEE74A4690
:1007B00000DA694206A800F0B5FB06AB93E8070033
:1007C00003AB83E8070050460A9900F0B5FC8DE8BA
:1007D0000700A0F500501F3800900398002D09DD98
:1007E00042F21F014A46084403A90390684600F0FC
:1007F00014FF08E0A0F500504A461F3803A90390F3
:10080000684600F01EFF8DE807000004000C03D0CE
:100810004FF0FF30410800E01046B8F1000F03D060
:100820000022009215461EE0751E05D400F0DEFA87
:10083000303262556D1EF9D5B3460122084302D00D
:1008400000227F1C04E02078302801D100227F1E86
:10085000002A099786D01DE0112D07DA00F0C6FAAC
:10086000303262556D1C50EA0102F5D1084302D0C6
:100870000098C8B10EE00021681E05E0235C625CB0
:1008800063542254401E491C8142F7DBAB46A81B2F
:10089000401E0990002004F80B000B98099AC0F83C
:1008A0000880C0E9002B7CE711264FF0000859E7CB
:1008B0002DE9F04F88460446D21D22F0070191B081
:1008C000D1E90001CDE90A0101F0EFFE02460B98E3
:1008D000C00F01D02D2007E02068810701D52B2013
:1008E00002E0202101EAC000032A099001D0072A72
:1008F00005DB03464146204600F0BEFA0BE12078B6
:10090000800601D5E06900E00620B8F1650F814658
:1009100006D0B8F1660F18D0B8F1670F70D131E08A
:100920000020B9F1110F009001DB112301E009F162
:1009300001030AAA01A90CA8FFF7E4FEDDE90C7087
:10094000002609F10105834647E001204B4600904F
:100950004FF000470AAA01A90CA8FFF7D3FEDDE972
:100960000DB00C995D46002610B909F101000D1873
:10097000B9EB050003D4C0F1FF3609F10105A5EB81
:1009800009002BE0B9F1010F01DA4FF00109002055
:10099000B9F1110F0090484601DD112300E0034634
:1009A0000AAA01A90CA8FFF7ADFEDDE90C704D46BF
:1009B00000268346207800070AD4AB4500DA5D465E
:1009C00001A8012D04DD411911F8011C302907D0BF
:1009D0004F4502DA17F1040F04DA012082460FE0D6
:1009E0006D1EEEE7002F02DCED1B3E4403E0781C99
:1009F000A84200DD7D1CB81B00F1010A4FF0004742
:100A00002078000703D4AA4501DB4FF0FF3A00210C
:100A1000B7F1004F0DF143088DF8431024D00220A8
:100A20002B23002F01DA7F422D230A21021EA0F181
:100A3000010000DC5FB197FBF1FC97FBF1F201FBD9
:100A40001C7C17460CF1300C08F801CDEEE7A8F13C
:100A5000010003702188090501D5452100E06521C9
:100A6000A0F1010800F8011C09980FA9A1EB0807E3
:100A7000FF1D00B10120411901EBEA70A169384462
:100A8000081A401EA0612078C00602D42046FFF755
:100A900092FD099828B1D4E901219047206A401CB1
:100AA00020622078C00622D52046FFF784FD1EE094
:100AB000002E04DBB34502DD01A8805D00E030209C
:100AC000D4E901219047206A401C2062761CAAF1DB
:100AD00001005FEA000A0AD100F084F9C0680168E9
:100AE000405CD4E901219047206A401C2062281E06
:100AF000A5F10105DCDC07E0D4E9012118F8010BC0
:100B00009047206A401C2062381EA7F10107F3DCE1
:100B10002046FFF766FD032011B043E601694A1C39
:100B200002610878704700B58FB0CDE9013100212E
:100B3000059105497944CDE9031011466846FFF750
:100B400041FC0FB000BD0000E5FFFFFF0A6802F89E
:100B5000010B0A60704710B5436913B1AFF3008011
:100B600001E0FFF7C9FB012010BD127800F124015C
:100B70000A7000224A700122EDE711684FF0FF323F
:100B8000E9E70000074B70B50D467B44FFF7CBFF4C
:100B90000446284600F034FA10B14FF0FF3070BD23
:100BA000204670BD631D00002DE9FF5F15468A4693
:100BB0000446DFF8AC80F8440027D8E900103E4630
:100BC000CDE9001010E03AF816106A4602A800F0CD
:100BD0001BFA411C07D02178890603D5E269391830
:100BE00091420DD80744761C2078800602D5E06932
:100BF000B84205DDAE42E6DB3AF816000028E2D145
:100C0000A069C01BA0612046FFF7D5FCD8E9001001
:100C1000CDE90010002017E03AF818106A4602A843
:100C200000F0F2F9B0F1FF3F81460BD000250DF145
:100C3000080B05E0D4E901211BF8050090476D1C65
:100C40004D45F7D308F10100B0428046E4DB206A4D
:100C5000384420622046FFF7C4FCBDE8FF9F000037
:100C60007E1F00002DE9F0418046D21D22F00702D0
:100C70000025D2E90002F52915A614D0011E72F153
:100C8000000106DA0023D0EB030063EB020211A699
:100C900008E0D8F800108B0701D50FA602E049073D
:100CA00001D50EA601251146002408F1240704E011
:100CB00000F09CF830323A55641C50EA0102F7D13A
:100CC0002B46324621464046BDE8F041FFF7ACBC1A
:100CD000000000002D0000002B000000200000009C
:100CE00030B4002100F1240408E002F00705D20826
:100CF000303542EA4372DB086554491C52EA030569
:100D0000F3D10468002310A2250708D504F02004BD
:100D10000C4304D0C46901230CA2641EC46130BC1E
:100D2000FFF782BC10B5044621461068FFF773FC3C
:100D300002462046BDE810400023D1E7D21D22F034
:100D40000701D1E90023CBE70000000030000000DC
:100D5000F0B40D460188090502D5214C7C4402E01F
:100D60001F4C7C440E34002100F1240608E002F000
:100D70000F071209E75D42EA03721B097754491C09
:100D800052EA0307F3D102780023120704D5702D2D
:100D900006D009B1022311342246F0BCFFF744BC4F
:100DA00001231034F8E770B504460D46214610685B
:100DB000FFF731FC024629462046BDE8704000237B
:100DC000C6E7D21D22F00703D3E90023C0E703687A
:100DD000126843F0200303600823C3610023B7E7D0
:100DE000E01D0000004870475808002030B5B0F101
:100DF0000A024FEA900E71F100034EEA817EB0EBD9
:100E00000E0061EB91014FEA101E4EEA017E10EBDD
:100E10000E0041EB11114FEA102E4EEA016E10EB5D
:100E20000E0041EB11214FEA104E4EEA014E10EB3D
:100E30000E0041EB1141401841F100014FEAD00092
:100E400040EA41704FEAD10110EB80054FEA81047E
:100E500044EA907444EB01046D1944EB0404521B02
:100E6000A3414FF0000348BF0A3200D530BD401CFB
:100E700041F1000130BD00002DE9F0411F4604465C
:100E800003260168072A01F4006004DB08B116A5F7
:100E900005E016A503E008B115A500E015A521F0B1
:100EA00010002060A069C01EA0610FB1401EA061AB
:100EB0002046FFF780FB4FB1D4E901213846904727
:100EC000206A401C2062C01C206206E0206AFAE70B
:100ED000D4E9012115F8010B9047761EF8D220467F
:100EE000FFF77FFBBDE8F0814E414E006E616E0062
:100EF000494E4600696E660010B5436913B1AFF301
:100F0000008001E0FFF750FE012010BD128800F1C3
:100F1000240182840022C2840122EDE711684FF08F
:100F2000FF32E9E72DE9F047814616468AB033489B
:100F300078440DC88DE80D0030487844801C03AC1F
:100F40000DC884E80D0041F69B300844372190FB22
:100F5000F1F290FBF1F5A5F1800501FB12041B3CB9
:100F600002D56442012000E00020DFF890A0804616
:100F70000027FA44AAF1BE0A0DE0E00709D0324684
:100F8000684607EB47010AEB810100F05AFB8DE848
:100F9000070064107F1C002CEFD1184F7F44AC3F3A
:100FA00018E0E80714D007EB04100DF1180A90E8D8
:100FB0000E008AE80E00C068F04201D1981908902E
:100FC000324606A903A800F03CFB03AB83E8070008
:100FD0006D10641C002DE4D132466946B8F1000F53
:100FE00003A802D000F019FB01E000F02AFBC9E9D8
:100FF0000001C9F808200AB0BDE8F087B01C000065
:10100000007B00F08000704770B516460C46054620
:1010100000F044F8036893F80101012806D0FF2C82
:101020000FD8185D68B101202C7070BDD3F807018E
:101030003246214603F2071303442846BDE87040B8
:1010400018474FF0FF3070BD004870473808002047
:101050007546FFF7F9FFAE4605006946534620F096
:101060000700854618B020B5FFF714F9BDE8204009
:101070004FF000064FF000074FF000084FF0000B54
:1010800021F00701AC46ACE8C009ACE8C009ACE807
:10109000C009ACE8C0098D467047000010B5FFF7E5
:1010A000A1FE001D10BD00BF4D1A00000446AFF3A5
:1010B00000802046FFF7D9F84FF0013C50F8042B90
:1010C00051F8043B9A4221D1A2EB0C03934313EA5B
:1010D000CC1317D150F8042B51F8043B9A4215D188
:1010E000A2EB0C03934313EACC130BD150F8042B5F
:1010F00051F8043B9A4209D1A2EB0C03934313EA43
:10110000CC13DBD04FF00000704700BFD01A01BAFB
:10111000B1FA81F101F0180122FA01F0CB40C1F1DE
:101120002001DBB2C0B2C01A2CFA01F3D11A9143EC
:1011300011EAC311E6D170475FEA400C08BF91F095
:10114000000F4FEA8C234FEAC12243EA51514FEA84
:101150001C5018BF00F5F0404FEA300018BF41F0B6
:1011600000415FEA6C5C00F02980BCF1FF3F08BFE2
:1011700040F080407047130C06BF12044FF0100C73
:101180004FF0000C130E04BF12020CF1080C130FE9
:1011900004BF12010CF1040C930F04BF92000CF178
:1011A000020CD30F04BF52000CF1010C11464FF09A
:1011B0000002A0F11F00A0EB0C00704711F0004FDF
:1011C00008BF704731F000413FF4D5AF0B0C06BFAC
:1011D00009044FF0100C4FF0000C0B0E04BF090275
:1011E0000CF1080C0B0F04BF09010CF1040C8B0F60
:1011F00004BF89000CF1020CCB0F04BF49000CF1B5
:10120000010CCCF12003A0EB0C0022FA03F302FA4C
:101210000CF241EA030100F10100704720F07F4C1D
:1012200080EA030023F07F47ACEB070303F57C5310
:1012300000F0004003F1FF032DE980494FEA154B10
:1012400009B44FEA144325EA0B4E24EA03480FF28F
:10125000042606EB132749083E785FEA320203FBB7
:101260000667C7F5000707FB06F64FEA54374FEA53
:10127000D64606F1020607FB066CCCF1005C4FEA8D
:101280001C472CEA074C07FB06F40CFB06F504EBA5
:1012900015464FEA961634BF00204FF000404FEA43
:1012A000D13706FB07FC4FEA1C4C0CFB0BF7D21B9B
:1012B00003FB0CF761EB07010CFB0EF7B0EB0740EB
:1012C00072EB17420CFB08F734BFA2EB0742B2EBFC
:1012D000074261EB17414FEA0C444FEA910706FBC6
:1012E00007FC4FEA1C4C0CFB0BF7B0EBC74072EB52
:1012F000573203FB0CF734BFA2EBC742B2EBC74235
:1013000061EB57310CFB0EF7B0EBC70072EB577275
:101310000CFB08F734BFA2EBC702B2EBC70261EBCC
:101320005771039F4FEA816141EA921104EBCC04AB
:101330004FEAD1374FEA826206FB07FC42EA90127D
:101340004FEA80604FEA1C4C0CFB0BF7D21B03FBEF
:101350000CF761EB07010CFB0EF7B0EB074072EBEB
:1013600017420CFB08F734BFA2EB0742B2EB07426F
:1013700061EB17414FEA8C554FEA910704EB9C242F
:1013800006FB07FC4FEA1C4C0CFB0BF7B0EBC7400D
:1013900072EB573203FB0CF734BFA2EBC742B2EB40
:1013A000C74261EB57310CFB0EF7B0EBC70072EB95
:1013B00057720CFB08F734BFA2EBC702B2EBC702AF
:1013C00061EB577115EB4C254FEA816141EA9211AF
:1013D0004FEA82624FEAD13742EA901206FB07FCDD
:1013E00044F100044FEA80604FEA1C4C0CFB0BF701
:1013F000D21B03FB0CF761EB07010CFB0EF7B0EB04
:10140000074072EB17420CFB08F734BFA2EB074210
:10141000B2EB074261EB174115EB1C154FEA813126
:1014200041EA92414FEA823242EA90424FEA8030EA
:101430004FEA0C7644F1000448EA03434EEA0B48B5
:101440004FF0000EB2EB080C71EB030724BF6246AD
:1014500039464EEB0E0E4FF0000B00185241494139
:101460004BEB0B0BB2EB080C71EB03077BF1000BA2
:1014700024BF624639464EEB0E0E4FF0000B0018AB
:10148000524149414BEB0B0BB2EB080C71EB0307DC
:101490007BF1000B24BF624639464EEB0E0E51EA3B
:1014A000020718BF46F0010616EB0E7655F1000252
:1014B00054F1000103D5BDE88901BDE80088BDE80D
:1014C0008901BDE80048B619524141EB0101A3F181
:1014D0000103704780807F7E7D7C7B7A7978777688
:1014E00076757473727171706F6E6E6D6C6C6B6A01
:1014F0006A6968686766666564646363626161609F
:10150000605F5F5E5E5D5D5C5C5B5B5A5A5959581B
:101510005857575656555555545453535252525185
:10152000515050504F4F4F4E4E4D4D4D4C4C4C4BDB
:101530004B4B4A4A4A494949484848474747474622
:10154000464645454544444444434343434242425E
:1015500042414141002B26D4770021D01CB54FEAEF
:10156000370703B44FF010004FF010014FF00000A8
:101570000FBCBDE810400BF1010BBBF1010F08BF20
:101580005FEA170722BF12F1010211F101014FF0CA
:10159000004143F1000300F0004043EA00007047BF
:1015A000F9D35708DAE746EA064613F1400F4FEA47
:1015B00016461FDD13F1200FDFBF16430A46002138
:1015C00020335B42C8D0C3F1200746EA064602FA40
:1015D00007F74FEA164646EA0706C3F1200722FA44
:1015E00003F201FA07F721FA03F14FF0000342EA90
:1015F0000702B1E746EA020646EA06464FEA164601
:1016000046EA0106BCBF46EA0646360C4FF0000328
:101610004FF000024FF000019EE72DE9C0489346CD
:1016200030B491E8380007C831EA400C48BF34EACA
:10163000430C03D5FFF7F2FDFFF78CFFF0BCBDE8CC
:1016400000882DE9C048934630B491E8380007C8B7
:1016500010F0804F08BF13F0804F03D100F005F861
:10166000FFF778FFF0BCBDE8008820F07F4780EAF4
:10167000030023F07F4C07EB0C03A3F57C5300F031
:101680000040A3F1FE0392F0000F00F0B38095F04C
:10169000000F00F077802DE901494FEA11404FEA31
:1016A000144621EA004800FB06FC24EA064708FB32
:1016B00006F607FB08F800FB07F718EB06484CEBAB
:1016C000164C4FEA124B18EB07484FEA15464CEB05
:1016D000174022EA0B4E0BFB06FC25EA06470EFBE1
:1016E00006F607FB0EFE0BFB07F71EEB064E4CEB58
:1016F000164C4FF000061EEB074E4CEB174B18EB49
:101700000B0840F1000018EB0E0B58EB000840F1FD
:1017100000008F1A4FF000013CBFC943661B14BF85
:10172000B5EB040C00213CBFC943F61B4FEA17443C
:101730004EEA8E0E27EA04454FEA1C4704FB076277
:101740002CEA074C05FB07F70CFB05F604FB0CFC29
:1017500016EB074642EB174216EB0C4642EB1C42D7
:101760001BEB060658EB0202414146EA9E0601D5F4
:10177000BDE80189B619524141EB0101A3F1010312
:10178000BDE801894FEA14454FEA114724EA0546AE
:1017900021EA074C05FB07F406FB07F70CFB06F1F3
:1017A00005FB0CFC11EB074144EB17444FEA1247D1
:1017B00011EB0C4144EB1C4422EA074C05FB07F2F9
:1017C00006FB07F70CFB06F605FB0CFC16EB0746C1
:1017D00042EB174216EB0C4642EB1C456A1854F1DB
:1017E000000148BF7047B619524141EB0101A3F116
:1017F0000103704795F0000F37D04FEA11424FEACE
:10180000144721EA024624EA074C02FB07F106FBD3
:1018100007F70CFB06F402FB0CFC14EB074441EB4E
:1018200017414FEA154714EB0C4441EB1C4125EAE4
:10183000074C02FB07F506FB07F70CFB06F602FB5D
:101840000CFC16EB074645EB174516EB0C4645EB33
:101850001C42121951F1000148BF7047B61952419C
:1018600041EB0101A3F1010370474FEA14454FEA30
:10187000114724EA054621EA074C05FB07F106FB60
:1018800007F70CFB06F24FF0000605FB0CFC12EB11
:10189000074241EB174112EB0C4251EB1C4148BF90
:1018A0007047921841EB0101A3F10103704721B188
:1018B000826842F00102826003E0826822F0010245
:1018C0008260704710B504461248844208D1012155
:1018D000401500F0D3FA0021601500F0CFFA17E0B0
:1018E0000D48844208D10121001500F0C7FA0021FB
:1018F000201500F0C3FA0BE00848844208D101210A
:10190000C80300F0BBFA00214FF4004000F0B6FA23
:1019100010BD00000024014000280140003C0140AF
:10192000014600208A6802F004020AB1012000E0AA
:1019300000207047014600208A6802F008020AB1C0
:10194000012000E00020704730B50246002000234F
:1019500050680F4C20400D790C6844EA0524204360
:10196000506090680B4C2040D1E902542C434D79D3
:1019700044EA450420439060D06A20F470000C7C57
:10198000641EE4B2234340EA0350D06230BD00003D
:10199000FFFEF0FFFDF7F1FF816841F00801816073
:1019A0007047816841F004018160704700B587B0DD
:1019B00001214FF4057000F051FA4FF4004000F09F
:1019C00011FAFF20ADF8040000208DF8070001A9EE
:1019D0001C4800F016F90320ADF8040000208DF833
:1019E000070001A9184800F00CF91848FFF76AFF32
:1019F000002002908DF80C008DF80D004FF460204F
:101A00000490002005900B208DF8180002A90F48C3
:101A1000FFF79AFF01210D48FFF749FF0B48FFF739
:101A2000BBFF00BF0948FFF785FF0028FAD1074830
:101A3000FFF7B7FF00BF0548FFF772FF0028FAD194
:101A400007B000BD00080140000C01400024014027
:101A500000BFFEE721B1026842F00102026004E02B
:101A600002684FF6FE731A400260704701684FF635
:101A7000FE72114001600021016041608160C1601F
:101A80004B49884208D14A490839496841F00F0159
:101A9000474A083A51608AE045491431884208D1E2
:101AA00043490839496841F0F001414A083A516018
:101AB0007DE03F492831884208D13D4908394968CD
:101AC00041F470613A4A083A516070E038493C315B
:101AD000884208D136490839496841F47041344A8E
:101AE000083A516063E032495031884208D13049A8
:101AF0000839496841F470212D4A083A516056E08E
:101B00002B496431884208D129490839496841F490
:101B10007001274A083A516049E0254978318842E6
:101B200008D123490839496841F07061204A083AD0
:101B300051603CE01F49884206D1011F096841F00D
:101B40000F01021F116032E01A491431884208D196
:101B50001849091F096841F0F001164A121F116067
:101B600025E014492831884208D11249091F096823
:101B700041F470610F4A121F116018E00D493C31A9
:101B8000884208D10B49091F096841F47041094A8C
:101B9000121F11600BE007495031884207D10549F7
:101BA000091F096841F47021024A121F1160704731
:101BB00008000240080402400146486880B27047AD
:101BC00010B50022026847F6F0739A430C6A8B68DE
:101BD00023430C6923434C6923438C692343CC6919
:101BE00023434C6A23438C6A23431A430260CB6825
:101BF00043600B6883604B68C36010BD41607047F1
:101C000070472DE9F0410246002500260020002300
:101C10000024002791F803C00CF00F0591F803C0D1
:101C20000CF0100CBCF1000F03D091F802C04CEA8C
:101C3000050591F800C0BCF1000F31D014680020F8
:101C40002BE04FF0010C0CFA00F3B1F800C00CEAE5
:101C500003069E4220D183004FF00F0C0CFA03F7CD
:101C6000BC4305FA03FC4CEA040491F803C0BCF140
:101C7000280F06D14FF0010C0CFA00FCC2F814C07A
:101C80000AE091F803C0BCF1480F05D14FF0010CF8
:101C90000CFA00FCC2F810C0401C0828D1D3146014
:101CA000B1F800C0BCF1FF0F34DD546800202EE015
:101CB00000F1080C4FF0010808FA0CF3B1F800C06D
:101CC0000CEA03069E4221D183004FF00F0C0CFA60
:101CD00003F7BC4305FA03FC4CEA040491F803C083
:101CE000BCF1280F05D100F1080C08FA0CF8C2F875
:101CF000148091F803C0BCF1480F07D100F1080C23
:101D00004FF0010808FA0CF8C2F81080401C0828AF
:101D1000CED35460BDE8F08100BFFEE708B50121D5
:101D2000182000F09BF84FF46040ADF80000102040
:101D30008DF8030003208DF8020069460848FFF77C
:101D400060FF4FF2E030ADF8000010208DF8030086
:101D500003208DF8020069460248FFF752FF08BDD4
:101D600000100140000C014000BFFEE7704700007A
:101D700070B5002100230F22C47804B3154C2468E9
:101D800004F4E064C4F5E064210AC1F10403CA402C
:101D9000447804FA03F184781440214309010E4C7D
:101DA0000678A155047804F01F050124AC4005789D
:101DB0006D11AD0005F1E025C5F8004109E004789A
:101DC00004F01F050124AC40044D0678761145F857
:101DD000264070BD0CED00E000E400E080E100E092
:101DE0007047000001460020034A506820F440403C
:101DF00008435060704700000010024029B1064AB5
:101E000052690243044B5A6104E0034A5269824317
:101E1000014B5A61704700000010024029B1064A88
:101E2000D2690243044BDA6104E0034AD269824377
:101E3000014BDA61704700000010024029B1064AE8
:101E400012690243044B1A6104E0034A1269824397
:101E5000014B1A61704700000010024029B1064A88
:101E600092690243044B9A6104E0034A92698243F7
:101E7000014B9A61704700000010024029B1064AE8
:101E8000D2680243044BDA6004E0034AD26882431A
:101E9000014BDA60704700000010024030B50021AD
:101EA0000022002400232D4D6D6805F00C0121B1A6
:101EB000042905D0082923D105E0294D056022E039
:101EC000274D05601FE0254D6D6805F47012234D08
:101ED0006D6805F48034022505EB92421CB9214D52
:101EE000554305600BE01D4D6D6805F400351DB1CF
:101EF0001C4D5543056002E0194D5543056002E055
:101F0000174D056000BF00BF144D6D6805F0F0016E
:101F10000909154D6B5C0568DD4045600F4D6D6826
:101F200005F4E061090A104D6B5C4568DD40856091
:101F30000A4D6D6805F46051C90A0B4D6B5C45682C
:101F4000DD40C560054D6D6805F44041890B074DC6
:101F50006B5CC568B5FBF3F5056130BD0010024050
:101F600000127A0000093D0020000020300000200F
:101F7000704710B500F002F810BD00000CB500204D
:101F8000019000903348006840F480303149086087
:101F900000BF3048006800F4003000900198401CF9
:101FA0000190009818B90198B0F5A06FF1D12948B7
:101FB000006800F4003010B10120009001E0002022
:101FC00000900098012843D12348006840F0100099
:101FD000214908600846006820F0030008600846B0
:101FE000006840F0020008601A48406819494860DB
:101FF0000846406848600846406840F48060486091
:102000000846406820F47C1048600846406840F468
:10201000E81048600846006840F08070086000BF23
:102020000C48006800F000700028F9D009484068AA
:1020300020F00300074948600846406840F002006D
:10204000486000BF0348406800F00C000828F9D140
:102050000CBD00000010024000200240042808D1FE
:102060004FF0E021096941F004014FF0E0221161D5
:1020700007E04FF0E021096921F004014FF0E02270
:10208000116170477047000010B51348006840F0B8
:1020900001001149086008464068104908400E498F
:1020A0004860084600680E4908400B490860084629
:1020B000006820F4802008600846406820F4FE0094
:1020C00048604FF41F008860FFF753FF4FF0006037
:1020D0000449086010BD0000001002400000FFF835
:1020E000FFFFF6FE08ED00E010B50121084800F002
:1020F00062F860B10748008840F400400549088054
:102100000121034800F048F8002000F031F810BD2C
:10211000000800401E0000207FB505460C46012146
:102120000420FFF77BFEADF80450ADF8004000201E
:10213000ADF80600ADF8020069460C4800F058F80A
:1021400001221146094800F047F81E208DF80C00C6
:1021500001208DF80D0002208DF80E0001208DF871
:102160000F0003A8FFF704FE7FBD00000008004039
:1021700010B5044644B10021064800F036F80121AC
:10218000044800F00CF803E00021024800F007F8D2
:1021900010BD000000080040CA430282704721B110
:1021A000028842F00102028004E002884FF6FE73CA
:1021B0001A400280704730B50246002000230024F8
:1021C000158A05EA0103958905EA010413B10CB1EA
:1021D000012000E0002030BD1AB183890B438381C8
:1021E00002E083898B4383817047818470470000BC
:1021F000002202881D4B98420ED01D4B98420BD0F6
:10220000B0F1804F08D01B4B984205D01A4B984232
:1022100002D01A4B984204D14FF68F731A404B8864
:102220001A43174B984207D0164B984204D04FF6EA
:10223000FF431A40CB881A4302808B8883850B8822
:1022400003850A4B98420BD0094B984208D00E4B9D
:10225000984205D00D4B984202D00D4B984201D1C7
:102260000B7A03860123838270470000002C014013
:10227000003401400004004000080040000C004011
:1022800000100040001400400040014000440140A4
:102290000048014070B58CB006460C461546012139
:1022A0000846FFF7ABFD3046FFF7E0FB01940295CF
:1022B00010200390002004900590802006900020BC
:1022C0000790089009904FF480500A9000200B90DE
:1022D00001A93046FFF774FC0CB070BD70B5044620
:1022E0000D4600212046FFF7B5FB29462046FFF7A3
:1022F00085FC01212046FFF7ADFB70BD10B540F213
:102300002551024800F00EF910BD000000380140D0
:1023100010B540F22551134800F004F908B31148F4
:1023200000F0BCF9C4B210480088B0F5806F12DA32
:1023300000210E48FFF759FF0B48008810B9012013
:10234000FFF716FF084801880088401C064A1080E5
:102350000748445405E00448008840F4004002491E
:10236000088010BD004800401E000020000800400A
:102370003804002010B586B0044601210820FFF77C
:102380006DFD01218804FFF749FD2F4800F07CF81E
:102390004FF48060ADF8100003208DF81200182073
:1023A0008DF8130004A92948FFF72BFC4FF40060B7
:1023B000ADF8100004208DF8130004A92348FFF79E
:1023C00020FC00940020ADF80400ADF80600ADF844
:1023D0000800ADF80C000C20ADF80A0069461A4858
:1023E00000F0F0F801228021174800F043F8184A65
:1023F0001549091D1748FFF74DFF0121124800F04C
:102400002DF8012240F225510F4800F0B5F82720A1
:102410008DF8140002208DF8150003208DF81600A9
:1024200001208DF8170005A8FFF7A2FC41F61F4117
:1024300040F2E730FFF770FE002007490880FFF701
:1024400097FE06B010BD000000480040000C01409F
:10245000380000201C0002401E00002021B18289AB
:1024600042F40052828104E082894DF6FF731A40E3
:10247000828170471AB1838A0B43838202E0838A88
:102480008B4383827047000010B504462048844285
:1024900009D101218803FFF7F1FC00214FF48040AE
:1024A000FFF7ECFC32E01B48844209D101214804CB
:1024B000FFF7C4FC00214FF40030FFF7BFFC25E01C
:1024C0001548844209D101218804FFF7B7FC002197
:1024D0004FF48020FFF7B2FC18E01048844209D185
:1024E0000121C804FFF7AAFC00214FF40020FFF7E8
:1024F000A5FC0BE00A48844208D101210805FFF73A
:102500009DFC00214FF48010FFF798FC10BD0000E7
:10251000003801400044004000480040004C0040AA
:102520000050004070B50246002400230025002022
:1025300040F66A16B14200D100BFC1F3421501F066
:102540001F03012606FA03F3012D02D196893340B9
:1025500006E0022D02D1168A334001E0968A33400C
:102560000C12012606FA04F41688344013B10CB19B
:10257000012000E0002070BDF0B5034600240026D5
:102580000025002040F66A17B94200D100BF184666
:10259000C1F3421401F01F06012707FA06F5012CCA
:1025A00001D10C3004E0022C01D1103000E01430D5
:1025B0001AB107682F43076002E00768AF4307605E
:1025C000F0BD00002DE9F04786B005460E46002418
:1025D000A24600BFA1460027B08900B100BF2F4628
:1025E0002C8A4CF6FF700440F08804432C82AC899E
:1025F0004EF6F3100440B0883189084371890843CE
:102600000443AC81AC8A4FF6FF400440B0890443D8
:10261000AC8201A8FFF742FC1F48874202D1DDF8D7
:1026200010A001E0DDF80CA0A88900F4004040B142
:102630000AEBCA0000EB0A1031684900B0FBF1F860
:1026400007E00AEBCA0000EB0A1031688900B0FB12
:10265000F1F86420B8FBF0F004012009642101FBCB
:102660001089A88900F4004040B1322000EBC90075
:10267000B0FBF1F000F00700044308E0322000EB6B
:1026800009106421B0FBF1F000F00F0004432C812D
:1026900006B0BDE8F0870000003801400146888898
:1026A000C0F30800704700BFFEE7490050EAC120B0
:1026B00018BF04204A0D18BF40F0010040F2FF721D
:1026C000B2EB515F08BF40F00200012808BF0520AF
:1026D000704730380A2801D2012070470020704727
:1026E00000BF704710B504460A48008800F4004057
:1026F00070B1002007490988C1F30E01064A505401
:10270000114606A0FDF7ECFD14B100200149088038
:1027100010BD00001E0000203804002025730000BA
:1027200070B5044600250948008800F4004058B1FF
:10273000002006490988C1F30E01054A505421467C
:102740001046FDF703FF0546284670BD1E00002019
:10275000380400202DE9F04106460D4614460027B6
:10276000002013490880314612A000F03DF9E5B180
:10277000DCB113E00A2000F095F80D48008800F461
:10278000004058B12846FFF7CBFF20B129460BA0E7
:10279000FDF7A6FD06E0002005490880601E80B216
:1027A0000400E7D100BF04B901273846BDE8F08135
:1027B0001E00002025730D0A0000000061636B3AC3
:1027C00025730D0A0000000010B54FF4FA6215A140
:1027D00015A0FFF7BFFF642000F064F84FF4FA6221
:1027E00010A114A0FFF7B6FF4FF47A7000F05AF86A
:1027F0004FF4FA620BA111A0FFF7ACFF642000F0C8
:1028000051F84FF4FA6207A10FA0FFF7A3FF64206D
:1028100000F048F80120FFF765FF00200F4908602D
:1028200010BD00000000000041542B43574D4F44A1
:10283000453D320041542B525354000041542B4328
:1028400049504D55583D310041542B434950534553
:10285000525645523D312C3333330000B081214272
:1028600010B56FF00400FFF7F9FB0A4800680A4949
:10287000B0FBF1F0094908700846007800EB400110
:10288000C1EBC0104FF6FF7101EAC0000449088097
:1028900010BD00000000002000127A00140000208B
:1028A000160000200146114A12884A434FF0E023E7
:1028B0005A6100229A611A46126942F001021A61B5
:1028C00000BF4FF0E022106900F001021AB100F4DD
:1028D0008032002AF5D04FF0E022126922F0010286
:1028E0004FF0E0231A6100229A6170471600002021
:1028F00000BF054A128802F04002002AF9D0C2B295
:10290000014B1B1D1A80704700380140FFF7A8FFDC
:10291000FFF704FAFFF74AF84FF4E13000F084F8CB
:102920004FF4E130FFF726FD27A0FDF7D9FCFFF7B4
:102930004BFF27A0FDF7D4FC00202849087041E098
:102940000120274908602749C1F8B401244908310A
:102950000860234910390860091D086020491C39A6
:102960000860091D08601F49C1F89C014FF47A7086
:10297000FFF798FF4FF47A70FFF794FF4FF47A70E7
:10298000FFF790FF002016490860091D0860091D27
:102990000860134910390860091D086010491C3986
:1029A0000860091D08600F49C1F89C014FF47A7056
:1029B000FFF778FF4FF47A70FFF774FF4FF47A70E7
:1029C000FFF770FFBCE70000454E5445520A000077
:1029D000737563636573730A000000003804002098
:1029E000B0812142008021420FB438B505A8009083
:1029F0000B48009A0499FDF761FC0020009000BF8D
:102A00000848FFF7D9F80028FAD10548FDF7B0FDCE
:102A1000C4B221460348FFF761FC38BC5DF814FBE3
:102A2000380000201C00024010B586B00446012189
:102A300044F20400FFF712FA4FF40070ADF81400EE
:102A400003208DF8160018208DF8170005A91C48E2
:102A5000FFF7D7F84FF48060ADF8140004208DF82C
:102A6000170005A91648FFF7CCF825208DF80000BF
:102A700003208DF801008DF8020001208DF803007D
:102A80006846FFF775F901940020ADF80800ADF82D
:102A90000A00ADF80C00ADF810000C20ADF80E00E7
:102AA00001A90848FFF78EFD012240F22551054893
:102AB000FFF762FD01210348FFF7D0FC06B010BD0F
:102AC000000801400038014010B500290AD00878FC
:102AD000002807D005487844FEF7EEFA002801D018
:102AE000002010BD0248784410BD000046010000DF
:102AF0003E01000010B500290AD00878002807D050
:102B000005487844FEF7D8FA002801D0002010BD0F
:102B10000248784410BD0000360100002E0100007C
:102B2000FDF7C6BE0400000800000000000000021F
:102B30000001000010000000000000000000000084
:102B400030313233343536373839414243444546E3
:102B500040305800303132333435363738396162DD
:102B6000636465664030780002400000000000A009
:102B70000000000005400000000000C80000000048
:102B80000C4000000000409C0000000019400000C4
:102B90000020BCBE0000000034400000BFC91B8EF6
:102BA00000000004B5400000504BCFD06607E2CFD4
:102BB000010000006C4100003E8251AADFEEA73404
:102BC00001000000D9420000DCB5A0E23A301F97B6
:102BD000FFFFFFFFB4450000FD25A0C8E9A3C14FDA
:102BE000FFFFFFFFFF3F000000000080000000002B
:102BF000FF3F00000000008000000000482D00089A
:102C000000000020340000006C0100087C2D00084A
:102C100034000020640E0000880100081C00000041
:102C200043000000F8FFFFFF0C0000000E00000052
:102C30000F0000002E000000100100004300000003
:102C4000F8FFFFFF004040404040404040404141CD
:102C50004141414040404040404040404040404071
:102C6000404040404005020202020202020202020B
:102C70000202020202202020202020202020200208
:102C80000202020202029090909090901010101098
:102C90001010101010101010101010101010101034
:102CA00002020202020288888888888808080808C8
:102CB0000808080808080808080808080808080894
:102CC00002020202400000000000000000000000BC
:102CD00000000000000000000000000000000000F4
:102CE00000000000000000000000000000000000E4
:102CF00000000000000000000000000000000000D4
:102D000000000000000000000000000000000000C3
:102D100000000000000000000000000000000000B3
:102D200000000000000000000000000000000000A3
:102D30000000000000000000000000000000000093
:102D4000000000000000000000A24A040000000093
:102D5000000000000102030406070809000000004B
:102D60000000000000000000000000000102030459
:0C2D70000102030406070809020406081B
:040000050800027974
:00000001FF
